:020000040800F2
:10000000000002201545000811450008357700085A
:1000100011450008114500081145000800000000C6
:100020000000000000000000000000001145000872
:10003000114500080000000011450008B9760008CD
:100040001145000811450008114500081145000838
:100050001145000811450008114500081145000828
:10006000114500081145000811450008B972000843
:10007000C572000811600008D1720008DD72000826
:100080007D180108A5670008114500081145000802
:1000900011450008114500081145000811450008E8
:1000A00011450008114500081145000811450008D8
:1000B000A50C0108B10C0108BD0C0108D5670008AA
:1000C00011450008E1670008114500084D050108C9
:1000D00059050108B1160108DD16010811170108BC
:1000E00011450008114500080000000011450008F6
:1000F0001145000811450008114500081145000888
:100100001145000811450008C90C010865050108E2
:100110004517010879170108114500081145000825
:10012000114500081145000889050108BD050108B1
:10013000B1180108114500081145000811450008D3
:1001400000000000000000000000000000000000AF
:10015000114500081145000811450008AD170108B8
:10016000ED67000811450008C9760008ED76000823
:1001700011450008117700081145000811450008D5
:100180001145000811450008E1170108151801087C
:10019000710501087D050108114500081145000899
:1001A00011450008114500081145000811450008D7
:1001B000296F000811450008114500081145000885
:1001C00011450008114500081145000811450008B7
:1001D00011450008114500081145000811450008A7
:1001E0001145000811450008114500081145000897
:1001F0001145000811450008114500081145000887
:100200001145000811450008114500081145000876
:100210001145000811450008114500081145000866
:1002200011450008114500081145000800000000B4
:1002300011450008114500080000000011450008A4
:100240001145000811450008114500081145000836
:100250001145000811450008114500081145000826
:100260001145000811450008114500081145000816
:100270001145000811450008491801080000000058
:100280001145000811450008114500080000000054
:08029000000000001145000808
:1002C0000348044B834202D0034B03B118477047E5
:1002D0004C0500244C050024000000000548064B96
:1002E0001B1AD90F01EBA301491002D0034B03B134
:1002F000184770474C0500244C05002400000000FE
:1003000010B5064C237843B9FFF7DAFF044B13B15D
:100310000448AFF300800123237010BD5005002472
:1003200000000000C843010808B5044B1BB1044994
:100330000448AFF30080BDE80840CFE700000000AC
:1003400054050024C843010810B5054C34B11346C8
:100350000A460146022000F0C1FE10BD204610BD35
:10036000DD10000870B50D4E0D4D761BB61006D091
:10037000002455F8043B01349847A642F9D1094EB0
:10038000094D761B14F014F8B61006D0002455F869
:10039000043B01349847A642F9D170BDD04301080F
:1003A000D0430108F4430108D0430108844641EAE0
:1003B000000313F003036DD1403A41D351F8043BDD
:1003C00040F8043B51F8043B40F8043B51F8043B2F
:1003D00040F8043B51F8043B40F8043B51F8043B1F
:1003E00040F8043B51F8043B40F8043B51F8043B0F
:1003F00040F8043B51F8043B40F8043B51F8043BFF
:1004000040F8043B51F8043B40F8043B51F8043BEE
:1004100040F8043B51F8043B40F8043B51F8043BDE
:1004200040F8043B51F8043B40F8043B51F8043BCE
:1004300040F8043B51F8043B40F8043B403ABDD23D
:10044000303211D351F8043B40F8043B51F8043BDF
:1004500040F8043B51F8043B40F8043B51F8043B9E
:1004600040F8043B103AEDD20C3205D351F8043B6E
:1004700040F8043B043AF9D2043208D0D2071CBF3A
:1004800011F8013B00F8013B01D30B880380604663
:10049000704700BF082A13D38B078DD010F00303D9
:1004A0008AD0C3F10403D21ADB071CBF11F8013B49
:1004B00000F8013B80D331F8023B20F8023B7BE798
:1004C000043AD9D3013A11F8013B00F8013BF9D2C3
:1004D0000B7803704B7843708B788370604670475D
:1004E000830730B548D0541E002A3FD0CAB2034615
:1004F00001E0013C3AD303F8012B9D07F9D1032C0D
:100500002DD9CDB245EA05250F2C45EA054536D94A
:10051000A4F1100222F00F0C03F1200EE6444FEA82
:10052000121C03F1100242E9045542E9025510324F
:100530007245F8D10CF1010214F00C0F03EB02121A
:1005400004F00F0C13D0ACF1040323F003030433C5
:10055000134442F8045B9342FBD10CF003042CB12A
:10056000CAB21C4403F8012B9C42FBD130BD644647
:100570001346002CF4D1F9E703461446BFE71A46A8
:10058000A446E0E700000000F0B52DED028BB0EED0
:10059000408B85B0154618EE902A0D9E0C9F002AC0
:1005A000B6BF2D220022B1EE408B662E0C461A708B
:1005B00016D0462E14D026F02003452B2FD0B0EEB7
:1005C000480B03AA019202AA00923B460A46022166
:1005D00000F06EFE672E2ED1EB072ED4039B17E0A2
:1005E00003AB019302AB009322463B460321B0EEDE
:1005F000480B00F05DFE0378302B00EB040C30D08C
:100600003968B5EE408BF1EE10FA61441CD10B460F
:100610000E9A1B1A136005B0BDEC028BF0BD03AA45
:100620000134019202AA00923B4622460221B0EE1A
:10063000480B00F03DFE472ECED0B5EE408BF1EEDC
:1006400010FA00EB0401E2D0039B9942E0D94FF08D
:10065000300C5A1C039283F800C0039B8B42F8D3E2
:10066000D6E7B5EE408BF1EE10FAC9D0C4F1010126
:100670003960C6E7F0B5002983B002703FDB841C07
:100680002B230929437030DD0DF107051F4FAC46C0
:1006900087FB0132CB17C3EBA20303EB8302A1EB71
:1006A00042020E463032632EE6460CF8012C194603
:1006B0000CF1FF3CECDC3031AEF10203C9B29D42DB
:1006C0000CF8011C1FD96346224601E013F8011BF8
:1006D00002F8011BAB42F9D10DF10903A3EB0E0E99
:1006E000A644AEEB000003B0F0BD3023A64619448B
:1006F0000EF8023B6170AEEB000003B0F0BD494262
:10070000841C2D23BDE7A646F5E700BF6766666635
:100710002DE9F04F8BB00C46DDF850A016461F4671
:10072000054601F0B7FDD0F80080404600F068FCB7
:1007300000230893DAF800300490073323F007030E
:1007400093ED000B9FEDAA7BB0EEC06B0833B4EEC7
:10075000476BF1EE10FA226894F81890CAF800304E
:1007600084ED120B00F38980B4EE400BF1EE10FA29
:1007700080F12F8261684B1C2BD0B9F1670F64D0D8
:10078000B9F1470F61D042F48062002322600393E5
:1007900008AB029307AB0093CDF804900DF11B0357
:1007A0002846FFF7F1FE8346B9F1650F079932D865
:1007B00001394A4604F150000791FFF75BFF089AA0
:1007C0001318012A8246236140F37A8101332361A1
:1007D00033E00621616042F48062002322600393CB
:1007E00008AB029307AB0093CDF804900DF11B0307
:1007F0002846FFF7C9FE09F0DF03472B8346D3D114
:100800000799C81C80F2EC80A9F102095FFA89F906
:10081000B9F1650FCCD9B9F1660F00F0F380089BF0
:100820008B4240F3FA800029D4BFC1F102020122B9
:1008300013442361A1654FF0000A9DF81B30002B83
:1008400031D02D2384F843302DE0002900F02181A0
:1008500042F4806200232260039308AB029307AB4B
:100860000093CDF804900DF11B032846FFF78CFE92
:1008700007998346C81CC7DBB2E0B5EEC00BF1EEAA
:1008800010FA02D52D2384F843305B4B5B4822F0ED
:100890000402B9F1470F94BF9B46834603232260AD
:1008A00023614FF0000A0097334609AA21462846E3
:1008B00000F0B0F9013025D0236858052DD4236904
:1008C0005A4631462846B84701301BD02368E068B5
:1008D00013F0020F099B1AD0C21A002A17DD04F187
:1008E00019094FF0000804E0E068099BC21A42456C
:1008F0000DDD01234A4631462846B847013008F14C
:100900000108F1D14FF0FF300BB0BDE8F08F9842F5
:10091000B8BF18460BB0BDE8F08FB9F1650F30D9FC
:1009200094ED127BB5EE407BF1EE10FA7DD1344AA6
:10093000012331462846B8470130E3D0DDE90723DB
:100940009A4202DB2368D907C1D5049B424631464F
:100950002846B8470130D5D0089B012BB6DD04F1FD
:100960001A094FF0000803E0089B013B4345ADDD49
:1009700001234A46314628469844B8470130F3D10E
:10098000C0E7089A012A40F3878001235A4631467E
:100990002846B8470130B5D0049B42463146284628
:1009A000B8470130AED094ED127BB5EE407BF1EE4E
:1009B00010FA40F08080089B012B78DD04F11A09C1
:1009C0004FF0000803E0089B013B43456FDD012326
:1009D0004A46314628469844B8470130F3D191E75A
:1009E000636899423FF710AF4FF0670917E700BF00
:1009F000FFFFFFFFFFFFEF7F6C420108704201081D
:100A00007C420108002960DD63682161002B00F051
:100A10008D8001330B4423610CE723682161DB07E0
:100A20007FF508AF4B1C236104E7079B002B54DDC7
:100A3000089BD4F858A05345A8BF5346002B9946AD
:100A400008DD5A4631462846B84701303FF45AAFD0
:100A5000D4F858A029EAE9731946AAEB0303002B3E
:100A600074DD04F11A02CDF814B04FF00009A3466A
:100A700092460C4604E0DBF858301A1B4A4561DD0B
:100A800001235246314628469944B8470130F2D1F5
:100A900038E7012161609EE6DB073FF576AF5A46F5
:100AA000012331462846B84701303FF42BAF534667
:100AB00004F1500205E7089B0BF10102013BF0E74E
:100AC0002268D2077FF5B9AE80E66368002B32D189
:100AD0002268D2072FD40123ABE64B4A01233146CB
:100AE0002846B84701303FF40DAFDDE90723134333
:100AF00023D0049B424631462846B84701303FF494
:100B000001AF079B002B7BDA04F11A094FF00008B4
:100B100003E0079B5B42434572DD01234A463146B1
:100B200028469844B8470130F3D1EBE62268D00755
:100B30007FF580AE6DE702337BE62368DA077FF549
:100B4000C6AED6E75C46DDF814B09A46DDE907216B
:100B50008A4202DB2368D80709D5049B4246314606
:100B60002846B84701303FF4CDAEDDE90721A1EBBF
:100B70000A098A1A9145A8BF9146B9F1000F0BDD09
:100B80000BEB0A024B4631462846B84701303FF48A
:100B9000B9AEDDE90732D21A29EAE979A2EB0903F5
:100BA000002B7FF793AE04F11A0A4FF0000807E01C
:100BB000DDE907239B1AA3EB090343457FF786AEC4
:100BC00001235246314628469844B8470130EFD1B8
:100BD00098E610EE903A002BB8BF2D2322F00402C5
:100BE000B8BF84F843302260084B094AB9F1470F77
:100BF00094BF93469B46032323614FF0000A52E6BD
:100C0000089B5A465DE600BF7C4201087842010815
:100C1000744201082DE9F84F92461F460A698B6815
:100C2000DDF828909A42B8BF1A46CAF8002091F819
:100C300043300C46064613B10132CAF80020226840
:100C400091065DD5DAF800300233CAF80030226828
:100C500012F0060F11461ED1E168CB1A002BD8BF47
:100C6000114618DD04F1190B4FF0000805E0E568A6
:100C7000DAF80030ED1A45450CDD01235A463946B5
:100C80003046C847013008F10108F0D14FF0FF307D
:100C9000BDE8F88F216894F84330003B18BF01236A
:100CA0008A060AD5E1185A1C302081F843002244F4
:100CB00094F8451082F84310023304F14302394698
:100CC0003046C8470130E1D0236803F00603042B07
:100CD0001DD0A3682269934225DD4FF000089B1ABE
:100CE00098441A34002501E045451CDA01232246C8
:100CF00039463046C847013005F10105F4D1C5E752
:100D000012F0060F12D0003B18BF0123D5E7DAF826
:100D10000030E1682269C91AA368934221EAE178A8
:100D2000DDDC0029DDDC0020BDE8F88FE168DAF8C1
:100D30000030CB1A002BD8BF114693DCABE700BFC5
:100D40002DE9F0470C4684B09046227E0C99074668
:100D5000994604F14300002A33D0A2F15803DDB2D2
:100D6000202D67D8202B65D8DFE813F0DE00640063
:100D70006400640064006400640064006400640053
:100D80006400A3006E0064006400640064006E00F0
:100D9000640064006400640021007F00C0006400FF
:100DA0006400AE0064007F0064006400E500236816
:100DB0001A0640F104810B6862691D1D0D601B68F5
:100DC0001A60002382462361CDF80090434603AAAF
:100DD00021463846FFF71EFF013020D023695246D6
:100DE00041463846C847013019D02368E068039E61
:100DF0009B0719D5831B002B16DD04F1190A00256A
:100E000004E0E068039E831BAB420DDD01235246E4
:100E100041463846C847013005F10105F1D14FF090
:100E2000FF3004B0BDE8F087B042B8BF304604B030
:100E3000BDE8F087012384F84220236104F1420ACF
:100E4000002384F84330BFE723681A0602D45E0605
:100E500000F1C1800D682A6804350D601546002A2E
:100E60006BDBDFF884C10A2610E023681D0640F121
:100E70009C800B681D1D0D601D68DFF86CC16F2A1A
:100E80000CBF08260A26002384F843306268A2605B
:100E9000002A7FDB236823F004032360002D5BD14D
:100EA000002A79D18246082E65D0A0EB0A00206185
:100EB0008AE70B680122186804330B6004F1420AC8
:100EC00084F842002261BBE70B686268181D086065
:100ED000D3F800A00021504601F0FAF9002800F0F4
:100EE0008180A0EB0A0060602061A9E7236843F0DD
:100EF000200323607822DFF8F4C084F845200A68D4
:100F0000151D0D601D0643D4590641D51588DE0711
:100F100044BF43F020032360002D44D1236823F015
:100F2000200323601026AEE7582384F84530DFF80D
:100F3000B8C02368E3E72368DCE76268A2602D217C
:100F4000002AC5F1000584F8431002DB23F00403F6
:100F50002360DFF894C00A268246B5FBF6F306FB51
:100F600013512A461CF801100AF8011DB2421D4611
:100F7000F3D2082E99D12368D90796D562682369E0
:100F80009A4292DC30230AF8013C0AF1FF3A8CE7DE
:100F90001568BCE7002DDFD19CF8003084F84230A2
:100FA00004F1420A7FE710266DE713F0400F0B684B
:100FB00003F104050D600CBF1D681D885DE713F08B
:100FC000400F0B68626903F104050D601B6814BFD4
:100FD0001A801A60F5E60A68B2F9005004320A6015
:100FE0002A463CE760687FE7804201089442010896
:100FF00000000000000000000000000000000000F1
:1010000090F800F06DE9024520F007016FF0000C48
:1010100010F0070491F820F040F049804FF00004F0
:101020006FF00700D1E9002391F840F000F10800CB
:1010300082FA4CF2A4FA8CF283FA4CF3A2FA8CF303
:101040004BBBD1E9022382FA4CF200F10800A4FA6A
:101050008CF283FA4CF3A2FA8CF3E3B9D1E90423BE
:1010600082FA4CF200F10800A4FA8CF283FA4CF3F5
:10107000A2FA8CF37BB9D1E9062301F1200182FAAF
:101080004CF200F10800A4FA8CF283FA4CF3A2FAB5
:101090008CF3002BC6D0002A04BF04301A4612BAC3
:1010A000B2FA82F2FDE8024500EBD2007047D1E9C6
:1010B000002304F00305C4F100004FEAC50514F055
:1010C000040F91F840F00CFA05F562EA05021CBF26
:1010D00063EA050362464FF00004A9E7F0B5264C29
:1010E000256885B0064605B36C681F2C41DCA6B1A7
:1010F000D5F8880048B3D0F8007140F824204FF0AC
:10110000010C0CFA04FC00EB84024CEA0707022EE7
:10111000C0F80071C2F8803010D0A31C01346C609C
:1011200045F82310002005B0F0BD1448144D25608B
:101130000028D9D00068C5F88800D5E7D0F8043178
:1011400043EA0C03C0F80431E7E70E480191CDE90A
:10115000022370B14FF4847001F0A4F848B1002765
:10116000C0E94077DDE902236C680199C5F8880081
:10117000C3E74FF0FF30D6E7000700241C3E01080C
:1011800074060024A52200082DE9F04F03690C69BC
:10119000A34283B0C0F28780013C01F11405A30093
:1011A00000F11408009355F8243058F82420013336
:1011B00081469A4208EB840005EB84070190B2FB5C
:1011C000F3F63BD30023AE4640469B465EF804ABA5
:1011D00002681FFA8AFC06FB0C334FEA134C4FEAF5
:1011E0001A4A06FB0ACA1FFA83FCABEB0C0C1FFA67
:1011F0008AF31CFA82FCC3EB124202EB2C421FFA68
:101200008CFC4CEA0243774540F8043B4FEA224B02
:101210004FEA1A43DAD2009B58F8033073B9019BA6
:10122000043B984504D307E0984504F1FF3403D20A
:1012300053F80429002AF7D0C9F81040484601F0B5
:101240009FFB00282BDB01364046002355F8041B8A
:10125000D0F800C08AB29A1A0B0C12FA8CF2C3EBC7
:101260001C4303EB224392B242EA0342AF4240F8EE
:10127000042B4FEA2343E9D258F8242008EB8403D7
:101280006AB9043B984504D307E0984504F1FF345C
:1012900003D253F80429002AF7D0C9F81040304689
:1012A00003B0BDE8F08F002003B0BDE8F08F00BFB1
:1012B0002DE9F04F2DED028B446A8FB08DED020BBE
:1012C00057EC106B0546019107920593002C00F036
:1012D0007182216849B162684A60012393408B6042
:1012E00001F086F86B6A00221A60B7F100081A9ABA
:1012F000B4BF012300231360C14BBCBF28F00048DA
:10130000CDF80C8033EA080300F0A2809DED028B3B
:10131000B5EE408BF1EE10FA10D1059A012313605F
:101320001B9B002B00F05382B6481860431E0093AD
:1013300000980FB0BDEC028BBDE8F08F0CAA0DA990
:101340002846B0EE480B01F073FC5FEA18530446E0
:1013500040F09680DDE90C130B4403F23242202A60
:1013600040F31C83C2F1400208FA02F803F2124271
:10137000D64048EA060207EE102AB8EE477B581E10
:1013800017EE906A01230A9353EC172BA6F1F8731A
:101390009FED953B9FED967B9FED975B06EE900A48
:1013A00043EC122BB8EEE64BB7EE086B32EE466B11
:1013B000A6EE037BA4EE057BFDEEC76BB5EEC07B0E
:1013C000F1EE10FA16EE908A08D5B8EEE66BB4EEA0
:1013D000476BF1EE10FA18BF08F1FF38B8F1160F9D
:1013E00000F2DB81884B03EBC80393ED007BB4EE86
:1013F000C78BF1EE10FA5AD5091A0023B1F1010991
:1014000008F1FF38099300F1CF8100230693B8F16A
:10141000000F54DA069BCDF81080A3EB0803069367
:10142000019B092BC8F1000A4FF000084FD8052B8B
:1014300040F3B282043B01930026019B9A1E032ACB
:1014400000F21B81DFE812F0C603C303BA0399035D
:10145000059A42F20F73C8F31308136058EA0603A3
:101460001ED11B9B002B00F09085684B0093083326
:101470001B9A009813600FB0BDEC028BBDE8F08F93
:1014800018EE906AA3F2FF30C6F3130600230A9306
:1014900053EC182B46F07F530C9943F4401377E735
:1014A0001B9B002B40F05883594B009340E7091ACF
:1014B0000023B1F10109099300F176810693019BA4
:1014C000CDF81080092BC1444FF0000AAFD900239A
:1014D0000126019308964FF0FF3B07936A6ACDF807
:1014E0002CB000215160284600F042FF00900028F7
:1014F00000F044856A6A009B1360BBF10E0F00F296
:10150000D180002E00F0CE80049B002B40F3E883B6
:101510003D4A03F00F0102EBC102D90592ED007BB9
:101520004FEA231240F188833A4991ED086B02F0AB
:101530000F02032088EE065B5AB13649D30704D563
:1015400091ED006B013027EE067B521001F108018E
:10155000F4D185EE076B099B3BB1B7EE007BB4EE8F
:10156000C76BF1EE10FA00F1AE8407EE900AB8EE08
:10157000E75BB1EE0C7BA5EE067B17EE902A51ECF3
:10158000170BA2F15071BBF1000F00F08A83049E8B
:101590005A46089B002B00F04784B6EE003B1A4FDA
:1015A000FDEEC64B07EBC207B8EEE47B36EE477B99
:1015B00017ED026B83EE065B41EC160B14EE900AFE
:1015C00035EE465B0099B4EEC57B3030F1EE10FA93
:1015D00001F8010B00F1AC84B7EE002BB2EE044B26
:1015E000002731E0AFF3008061436F63A787D23FEC
:1015F000B3C8608B288AC63FFB799F501344D33F02
:101600000000F07F7D420108903E0108A8420108D9
:10161000B4420108803F01080137974242DA27EEC1
:10162000047B25EE045BFDEEC76B16EE903AB8EE38
:10163000E63B303337EE437BB4EEC57BF1EE10FA78
:1016400001F8013B00F1748432EE476BB4EEC56BD8
:10165000F1EE10FAE0D5009A049602E08A4200F01A
:101660005184894611F8013D392BF7D00133DBB2A3
:101670000B70049B0133049376E16A6A002656607E
:101680003146284600F074FE0090002800F0768471
:101690006A6A009B13604FF0FF33012207960B9399
:1016A00008929B460D9A002A55DB04990E2952DCBC
:1016B000BE4B03EBC10393ED006B079B002B15DAC8
:1016C000BBF1000F12DC40F00083B1EE047B26EE8C
:1016D000076BB4EEC68BF1EE10FADA465E4600F206
:1016E0009282079BDDF80080DF4394E288EE067B60
:1016F000BDEEC77B009917EE103ABBF1010F03F165
:101700003003B8EEC75B01F8013BA5EE468B00F055
:101710004283B2EE044B012311E088EE067BBDEE5E
:10172000C77B013317EE102A5B4502F13002B8EE99
:10173000C75B01F8012BA5EE468B00F02C8328EE49
:10174000048BB5EE408BF1EE10FAE6D1049B013329
:101750000493894608E1089B002B40D0019B012B94
:1017600040F384820BF1FF339A4580F26282A3EB4F
:101770000A0AD0449A460023BBF1000FC0F23C8312
:10178000069A17465A44D9440692012128460A93DC
:1017900000F04EFF0A9B064624E0091A0123B1F12E
:1017A000010909937FF531AEC1F1010306934FF0B2
:1017B00000092CE6102000F075FD02466862002842
:1017C00000F0EA83C0E901440460C4608DE5784B11
:1017D000009300980FB0BDEC028BBDE8F08F069F20
:1017E000089E5346002F0CDDB9F1000F09DD4F456F
:1017F00006993A46A8BF4A46891A0691BF1AA9EB2C
:101800000209BAF1000F1BD0089A002A00F0618289
:10181000002B11DD1A46314628460A9300F0CCFF12
:10182000224601460646284600F018FF2146044697
:10183000284600F0DDFD0A9BBAEB030240F0D68299
:101840000121284600F0F4FEB8F1000F824600F3B3
:10185000B180019B012B40F3838100230A93012077
:10186000B8F1000F40F0B280484410F01F0000F0C3
:101870009180C0F12002042A40F39383C0F11C0040
:10188000069B0344069307448144069B002B05DD19
:1018900021461A46284600F0FFFF0446B9F1000F22
:1018A00005DD51464A46284600F0F6FF8246099B70
:1018B000002B40F03681BBF1000F40F31C81089BE8
:1018C000002B40F09B80049B01330493DDF80080E3
:1018D000012707E0214600230A22284600F0ACFD3C
:1018E0000137044651462046FFF74EFC5F4500F1A4
:1018F000300008F8010BEDDBBBF1000F009AD8BFF8
:101900004FF0010B0346934400272146012228464D
:10191000019300F0C1FF5146044601F031F8002860
:1019200040F392811BF8013C009A0BF1FF3B04E06D
:101930005A4500F094811BF8013D392B0BF1010948
:10194000F6D001338BF800305146284600F050FDA8
:1019500056B12FB1B74203D03946284600F048FDB2
:101960003146284600F044FD2146284600F040FD5F
:10197000002389F80030DDE904231A601B9B002B4B
:101980003FF4D6AC0098C3F800900FB0BDEC028BCA
:10199000BDE8F08F1C2073E701264EE5C2F120025E
:1019A00006FA02F207EE102AE7E400BF903E0108B3
:1019B0007C42010801464246284600F0FDFE019B9C
:1019C000012B824640F3B18100230A93DAF81020FC
:1019D0000AEB8202106900F0DBFDC0F1200043E752
:1019E000314600230A22284600F026FD0B9B002BDF
:1019F000064640F3B782CDF810809B46002F05DDE8
:101A000031463A46284600F047FF06460A9B002B1F
:101A100040F0D581B046029B009F03F001027B1E7F
:101A20005B440893019B0A92134309935146204655
:101A3000FFF7AAFB31468346204600F0A1FF42464D
:101A400051468146284600F0BDFFC26801460BF1B1
:101A50003003002A42D1CDE90603204600F090FF72
:101A600006990290284600F0C3FC029A079B1AB917
:101A70000999002900F06682B9F1000FC0F26D816A
:101A8000019949EA01090A9951EA090100F06581C1
:101A9000002A00F3B581089A3B7007F101099742CB
:101AA000CB4600F0B381214600230A22284600F0ED
:101AB000C3FC4645044631464FF000034FF00A028E
:101AC000284612D000F0B8FC4146064600230A2200
:101AD000284600F0B1FC4F468046A7E7284602930F
:101AE00000F086FC029B0122C6E700F0A5FC4F46F1
:101AF000064680469AE7019B022B72DC089B002B6E
:101B00007FF47CAF049B5146013320460493FFF7DA
:101B10003BFBDDF800B000F130030BF8013B002780
:101B2000F3E65146204600F02BFF0028BFF6C3AE77
:101B3000214600230A22284600F07EFC049B03F184
:101B4000FF38089B0446002B7FF44AAF0B9B002B09
:101B500040F3FF819B46B9E6AF4B0093033387E424
:101B6000DDE9020100287FF478AEC1F31302002AF8
:101B700000F0E680029B0A9371E601230893079B1D
:101B8000049A134403F1010BBBF1010FDC460B93E4
:101B9000B8BF4FF0010C6B6A0021BCF1170F596000
:101BA0007FF7A1AC01200422520002F1140767451F
:101BB000014600F10100F7D9596094E4012308932C
:101BC000079B002B3CDD0B939B469C46E3E70023E1
:101BD0000893D4E700230893F2E7DDF82CB0CDF8A2
:101BE0001080BBF1000F7FF47CAD51465B460522AF
:101BF000284600F021FC01468246204600F0C0FE47
:101C000000287FF76EAD0098049F3123804600F8CE
:101C1000013B013700905146284600F0E9FB7B1C50
:101C2000DDF800900493CDF80080002E7FF498AE8C
:101C30009AE6AAEB03039FE50220B0EE485B7BE443
:101C4000012307939B4649E403D1019BDB073FF542
:101C500069AED9461BF8013D302BFAD074E6049BDF
:101C6000009A01330493312313706DE60A9B002B15
:101C700000F0208102F23342069B1F461344069374
:101C80009144534681E507EE900AB1EE0C5BB8EE45
:101C9000E77BA6EE075B15EE902A51EC150BA2F13F
:101CA000507141EC150BB1EE047B36EE477BB4EE80
:101CB000C57BF1EE10FA00F33581B1EE455BB4EE71
:101CC000C57BF1EE10FA7FF5EDAC4FF0000A5646F9
:101CD00007E521465246284600F06EFD0446AFE572
:101CE00000F0EC80049B4D495A4202F00F0001EBDA
:101CF000C00191ED006B121128EE066B00F03B81E4
:101D0000B0EE467B464900260220D70705D591ED67
:101D1000005B0130012627EE057B521001F108011E
:101D2000F3D1002E06FE076B15E4029B002B7FF417
:101D30004BAEDDE90201C1F31302002A40F0298114
:101D4000384A0A40002A00F0F180069B01330693CE
:101D5000012309F101090A9381E5002A12DD2146D8
:101D600001222846019300F097FD5146044600F0F9
:101D700007FE0028019B40F3DF80392B00F0C8806C
:101D80000BF13103B94609F8013B049B0133374697
:101D900004934646D8E538EE088BB4EEC68BF1EED8
:101DA00010FA0ADCB4EE468BF1EE10FA7FF4CEACFA
:101DB00017EE103AD8077FF5C9AC009A51E4716864
:101DC000284600F0D5FA0746002800F0EF80336976
:101DD00002339A0006F10C010C30FEF7E7FA39469F
:101DE0000122284600F058FD804614E62146284688
:101DF00000F0E2FC044623E5069AA2EB0B07C4E4DC
:101E0000392B00F08580B9460133BCE7049A0132D2
:101E100037460492464678E5B4420108903E0108F0
:101E2000803F01080000F07F644FFDEEC65B07EBCA
:101E3000C20717ED023BB8EEE57B36EE477B41EC7F
:101E4000160B15EE901A23EE063B00983031012A4E
:101E500000F8011B00F08480B2EE044B009B99183F
:101E600027EE047BFDEEC76B16EE903A303300F898
:101E7000013B8842B8EEE65B37EE457BF0D1B6EE2B
:101E8000006B33EE065BB4EEC75BF1EE10FA3FF584
:101E9000E2AB36EE436BB4EEC76BF1EE10FA7FF7B0
:101EA00001AC8946013919F8013C302BF9D0731C7B
:101EB000049359E50C9AC2F13602DDE60220B0EE39
:101EC000486BFFF748BBBBF1000F3FF4DCAE0B9A49
:101ED000002A7FF7E7ABB2EE044B26EE046B01302D
:101EE00007EE900A049BB8EEE75BB1EE0C7BA6EE22
:101EF000057B17EE907A51EC170B5E1EA7F150711F
:101F0000FFF747BB049B013304933123FFF7B0BBBA
:101F1000049BBB4601330493392337460BF8013B3E
:101F2000464601E54FF0000A56466CE60A9296E4F2
:101F3000731C0493894617E57FF424AFDA077FF515
:101F400021AF1AE7392BE3D0B9F1000F3FF718AFF3
:101F500018E7019B022B3FF740AECDF81080D1E58A
:101F600001468CE7019B022B3FF737AEDDF82CB022
:101F7000CDF8108042E50220FFF7EDBA104B114872
:101F800000224FF4D57101F015FB0F4B0093FFF7C2
:101F9000CFB9029B0A9319E50C4B0A48EA2101F0DC
:101FA00009FB3FF472ACC0F13C0069E4044B054806
:101FB0003A4640F2EA2101F0FDFA00BF903E0108E6
:101FC00004430108D0420108A8420108B8420108B0
:101FD00000207047014900F037B900BF39370008C9
:101FE0000020704770B568224D1E02FB05F50E46B5
:101FF00005F1740100F09AFF044640B100210C3055
:10200000C4E90016A06005F16802FEF769FA2046EF
:1020100070BD00BF274B2DE9F0411E68B36907462C
:1020200053B348364FF00408D6E90134013B04D5D8
:102030001EE05A1C04F168041AD0B4F90C50013B9C
:10204000002DF6D11C4B6566C4E90055C4E9025366
:10205000C4E90455A5610822294604F15C00FEF795
:102060003FFAC4E90D55C4E912552046BDE8F08198
:1020700035682DB12E46D7E7304600F01FF8D0E77F
:102080004FF4D671384600F051FF044668B1056040
:10209000C0F804800C302946A06025464FF4D07269
:1020A000FEF71EFA34602E46BEE70C2330603B601C
:1020B000DBE700BF183E01080100FFFF2DE9F84FE4
:1020C000344B35491A68816290424FF00003C0E9F1
:1020D0001233036504BF012383610546FFF79AFFAE
:1020E00068602846FFF796FFA8602846FFF792FF32
:1020F0006F68E86000240423C7E9024308222146F0
:10210000C7E90044C7E904447C66BC6107F15C0090
:10211000FEF7E6F9DFF88CB0AE68DFF88CA0DFF8E8
:102120008C90DFF88C801D4BC7F828A0C7E9087B8E
:10213000C7F82C90C7F830800822F360C6E9004445
:10214000C6E904447466B460B461214606F15C00DB
:10215000FEF7C6F9C6E9086BC6E90AA9C6F83080D9
:10216000EE680F4BF360C6E90044C6E904447466A8
:10217000B460B4612146082206F15C00FEF7B0F9B4
:102180000123C6E9086BC6E90B98C6F828A0AB6125
:10219000BDE8F88F183E0108D51F000809000100AE
:1021A000120002002D330008553300089533000853
:1021B000B5330008024B0349186800F045B800BF6A
:1021C000183E010839370008836903B976E770477C
:1021D000704700BF704700BF704700BF704700BF27
:1021E000024B0349186800F00FB800BF0400002438
:1021F000D11F0008024B0349186800F005B800BF62
:1022000004000024E11F00082DE9F041884600F198
:1022100048070026D7E90154013D0FD4A389012BBB
:1022200005F1FF3506D9B4F90E300133204601D04F
:10223000C04706436B1C04F16804EFD13F68002FD0
:10224000E8D13046BDE8F0812DE9F84307468846DD
:1022500000F148064FF00009D6E90154013D11D4C0
:10226000A389012B05F1FF3508D9B4F90E300133EC
:10227000214603D03846C04749EA00096B1C04F1E7
:102280006804EDD13668002EE6D14846BDE8F883F3
:10229000F0307047004870475801002400487047EC
:1022A00058010024024B0146186800F03FBE00BFF1
:1022B00004000024024B0146186800F0D5BD00BFA1
:1022C00004000024000000000000000000000000E6
:1022D00001F0FF01102A2BDB10F0070F08D010F8D7
:1022E000013B013A8B422DD010F0070F42B3F6D1DB
:1022F000F0B441EA012141EA014122F007047FF0F4
:1023000000070023F0E80256083C85EA010586EA4A
:10231000010685FA47F5A3FA87F586FA47F6A5FA86
:1023200087F68EB9EED1F0BC01F0FF0102F0070292
:1023300032B110F8013B013A83EA010313B1F8D13D
:102340000020704701387047002D06BF354603381E
:10235000073815F0010F07D1013015F4807F02BF57
:10236000013015F4C03F0130F0BC0138704700BFA8
:1023700070B5466A05460C465EB1F368A3B153F8E2
:102380002400E8B1026843F824200023C0E90333A5
:1023900070BD1020FFF786FF06466862E8B1002393
:1023A000C0E901330360C36021220421284600F004
:1023B0004DFD6B6AF060DB68002BE0D1002070BD42
:1023C000012101FA04F6721D9200284600F03EFD3C
:1023D0000028F3D0C0E90146D7E7034B0348324653
:1023E000662101F0E7F800BFB84201081843010870
:1023F00070B5456A04460E464DB13EB1636A7268D7
:10240000DB6853F82200306043F8226070BD102072
:10241000FFF748FF0246606220B1C0E90155056040
:10242000C560EAE7024B03488A2101F0C3F800BF08
:10243000B842010818430108F0B50C69064683B09C
:102440000D4601F1140E0020DEF800101FFA81FC89
:1024500002FB0C334FEA134C090C02FB01CC013098
:102460009BB203EB0C4384424EF8043B4FEA1C43FF
:10247000EADC3BB1AA68A24207DD05EB8402013425
:1024800053612C61284603B0F0BD696801930131A6
:102490003046FFF76DFF019B0746A0B12A69019303
:1024A0000232920005F10C010C30FDF77FFF294646
:1024B00030463D46FFF79CFF05EB8402019B5361CC
:1024C00001342C61DEE7034B03483A46B52101F0A5
:1024D00071F800BF04430108184301082DE9F843CF
:1024E0000C4628491F46164603F1080281FB0231BB
:1024F000092F4FEAE2730546C3EB610339DD4FF064
:10250000010C00214FEA4C0C634501F10101F9DC9B
:102510002846FFF72DFF014668B3089B4361092E4B
:102520004FF00103036112DC0A340926B7420BDDC8
:10253000BE1B264414F8013B0A22303B2846FFF715
:102540007BFFA6420146F5D10846BDE8F88304F1B9
:102550000909C846344418F8013B0A22303B284692
:10256000FFF76AFFA0450146F5D1A6F108044C44E7
:10257000DCE70021CCE70A46034B0448CE2101F0FA
:1025800019F800BF398EE3380443010818430108E5
:10259000030C1B04D3B90004102310F07F4F04BFB9
:1025A0000002083310F0704F04BF0001043310F034
:1025B000404F04BF80000233002805DB10F0804F3D
:1025C00003F1010308BF2023184670470023E4E706
:1025D000036813F00702014607D0DA071FD49807F3
:1025E00021D55B080B600120704798B2A0B110465E
:1025F000DAB20AB908301B0A1A0704BF1B090430F3
:102600009A0704BF9B080230DA0703D45B0800F185
:10261000010006D00B6070471B0C1020E8E700207B
:102620007047202070479B080B600220704700BF56
:1026300010B50C460121FFF79BFE024618B101239D
:10264000C0E9043410BD034B03484FF4A07100F0FF
:10265000B1FF00BF04430108184301082DE9F04F02
:102660000E691569AE4285B08846144605DB2A46D8
:10267000234635460C4616469846A3686168AF194E
:10268000BB42B8BF0131FFF773FE0190002800F094
:102690008780019B03F1140909EB870AD14505D214
:1026A0004B46002243F8042B9A45FBD808F1140846
:1026B00008EB860B04F11403D8451A4603EB850595
:1026C0005FD22B1B153B23F0030304331534A542C3
:1026D00038BF0423CDE902A7AC461F46924605E069
:1026E000000C29D1C34509F1040948D958F8040B55
:1026F00085B2002DF4D056464C46002356F8040B04
:10270000216882B21FFA81FE05FB02EE000C0A0C62
:10271000734405FB002202EB13429BB243EA0243DF
:10272000B44544F8043B4FEA1243E7D849F8073070
:1027300058F8040C000CD5D0D9F80030544619468E
:102740004D4600222688090C00FB06110A449BB264
:1027500043EA024345F8043B54F8046B2968360CFD
:102760008BB200FB063303EB1243A4454FEA13423E
:10277000E8D8C34549F8073009F10409B6D8DDE9BE
:1027800002A7002F02DC05E0013F03D05AF8043D08
:10279000002BF9D0019B18461F6105B0BDE8F08FF2
:1027A000034B0448019A40F25D1100F003FF00BFA3
:1027B00004430108184301082DE9F04112F0030316
:1027C00082B0144607462DD10E46A4101CD07A6A5A
:1027D0008AB39568002D39D0E3074FF0000806D47E
:1027E000641011D0286898B10546E307F8D5314642
:1027F0002A463846FFF732FF3146034638461E4622
:10280000FFF7F6FD6410EDD1304602B0BDE8F0816F
:102810002A4629463846FFF721FF2860C0F8008085
:102820000546E2E7013B184A52F823200023FFF750
:1028300003FE0646C9E71020FFF734FD0246786222
:10284000E0B10023C0E901330360C36001213846D1
:102850000192FFF78DFD019A054640B1012340F238
:102860007121C0E90431002390600360B4E7074B95
:1028700007482A464FF4A07100F09CFE054B04481F
:102880004FF4D77100F096FE803E01080443010822
:1028900018430108B84201082DE9F0470D4691465A
:1028A0002F69AB68496807EB62177C1C9C42804625
:1028B0004FEA621A04DD5B009C4201F10101FADC7F
:1028C0004046FFF755FD064600284DD0BAF1000FEF
:1028D00000F114000EDD0AF105024FEA820C0346F6
:1028E00006EB8202002143F8041B9342FBD1ACF1BA
:1028F00014031844296905F1140319F01F0903EBA7
:10290000810129D0C9F1200E84464FF0000A1A68CF
:1029100002FA09F242EA0A024CF8042B53F8042B9B
:10292000994222FA0EFAF2D84B1B153B23F003030F
:10293000043305F11502914238BF0423BAF1000FA8
:1029400018BF274640F803A0404637612946FFF7E5
:102950004FFD3046BDE8F087043853F8042B40F8AB
:10296000042F9942F9D8EFE7034B0448324640F26E
:10297000D91100F01FFE00BF0443010818430108ED
:102980000B6984460069C01A16D10CF1140C14317D
:102990000CEB830210B401EB830301E0944508D2F1
:1029A00052F8044D53F8041D8C42F7D005D24FF075
:1029B000FF305DF8044B7047704701205DF8044B11
:1029C000704700BF2DE9F84F0F691369FF1A002FF8
:1029D0000E4690467AD101F11405143202EB8302BF
:1029E00005EB830301E09D4273D253F8041D52F8B6
:1029F000044DA142F7D064D37168FFF7B9FC81465A
:102A0000002872D03569D8F81020C76008F1140E7C
:102A100006F1140009F1140A06F1100C0EEB820203
:102A200000EB8507564600215EF8044B5CF804BFB6
:102A3000A3B211FA8BF1CB1A210CC1EB1B4101EBB4
:102A400023419BB243EA0143724546F8043B4FEAF7
:102A50002141E9D8A2EB0804153C08F115084245CC
:102A600024F0030606F1040638BF0426304424F09F
:102A7000030238BF002287425244B24416D9564658
:102A8000044654F8043B11FA83F10A1402EB134292
:102A900089B241EA0243A74246F8043B4FEA224189
:102AA000EFD87A1E101A20F00302524423B952F8CC
:102AB000043D013D002BFAD0C9F810504846BDE84E
:102AC000F88F334601274646984695E7F9DB0027FD
:102AD00092E70021FFF74CFC814668B101220023F8
:102AE000C9E904234846BDE8F88F074B07484A4622
:102AF0004FF4107100F05EFD034B04484A4640F26B
:102B0000322100F057FD00BF0443010818430108BB
:102B100082B08DED000B154B019A1340A3F1507359
:102B2000002B05DD0020194641EC100B02B0704768
:102B30005B42B3F1A07F4FEA235208DA4FF400233F
:102B4000002043FA02F141EC100B02B07047143A36
:102B50001E2ADABF4FF0004323FA02F201220021BD
:102B6000104641EC100B02B0704700BF0000F07F30
:102B7000F8B5046900F1140606EB8404271F54F825
:102B8000045C2846FFF704FDC0F120030A280B600F
:102B900031DDBE421BD20B3854F8081C23D0C0F1E3
:102BA000200C854021FA0CF72F43A4F1080547F0CB
:102BB0007F53AE4243F4401336D2814054F80C0C9C
:102BC00020FA0CF00843024643EC102BF8BD0B38FA
:102BD00008D005FA00F040F07F53002043F4401382
:102BE0000246F1E7014645F07F5343F440130A469D
:102BF00043EC102BF8BDC0F10B0C25FA0CF1BE42D2
:102C000041F07F5338BF54F8081C00F1150034BF61
:102C100021FA0CF1002105FA00F043F4401340EAD8
:102C2000010243EC102BF8BD01FA00F00246CBE79D
:102C30002DE9F043884683B0012157EC106B15460F
:102C4000FFF796FB044600284FD0C7F30A59C7F395
:102C50001303B9F1000F01D043F48013002E019348
:102C600024D068460096FFF7B3FC002839D0DDE990
:102C70000013C0F1200203FA02F20A43C34062616A
:102C80000193002B14BF02220122A3612261B9F13A
:102C9000000F16D0A9F233430344C0F13500C8F841
:102CA00000302860204603B0BDE8F08301A8FFF79C
:102CB0008FFC019B6361012220302261B9F1000F7A
:102CC000E8D104EB8203A0F23240C8F80000186992
:102CD000FFF75EFCC0EB42102860204603B0BDE861
:102CE000F083009B6361019BCBE7034B03482246C3
:102CF00040F20A3100F05EFC044301081843010869
:102D0000F0B583B00E4669460746FFF731FF01A9CB
:102D1000304655EC104BB0EE407BFFF729FF3B6986
:102D20003169591ADDE90023D31A03EB4113002B53
:102D300009DD17EE902A02EB035545EC174B87EEA1
:102D4000000B03B0F0BD10EE902A51EC100BC3EB5A
:102D5000033302EB035141EC100B87EE000B03B081
:102D6000F0BD00BF172808DDB7EE000BB2EE047B04
:102D7000013820EE070BFBD17047034B03EBC0007B
:102D800090ED040B704700BF803E010801394911E6
:102D900001F1010C116902F1140303EB81018B4273
:102DA00000EB8C0C16D210B5A0F1040E53F8044BB6
:102DB0004EF8044F9942F9D88B1A153B23F00303C0
:102DC00004331844844504D9002340F8043B844567
:102DD000FBD810BD844505D9002340F8043B844549
:102DE000FBD87047704700BF03694A11934200F156
:102DF000140009DA00EB830302E053F8042DCAB98A
:102E00008342FAD80020704711DD11F01F010ED067
:102E100010B450F8224000EB820324FA01F202FAC7
:102E200001F18C420CD001205DF8044B704700EB9F
:102E30008203E5E70120704753F8042D002AF2D100
:102E40008342F9D800205DF8044B704738B502FB87
:102E500001F5294600F06AF8044618B12A46002117
:102E6000FDF73EFB204638BD002958D030B551F85B
:102E7000043C83B0002BA1F10404B8BFE418019016
:102E800000F09EFF284A0198136833B1A3420DD980
:102E9000216804EB010C63452FD06360146003B01C
:102EA000BDE8304000F08EBFA34210D81A465B68E0
:102EB000002BF9D1116802EB010C644519D02FD316
:102EC0006360546003B0BDE8304000F07BBF116820
:102ED00002EB010CA44516D022D8216804EB010CAA
:102EE0006345EDD11D685B682944C4E90013546053
:102EF000D5E7236819441160D1E71D685B68294450
:102F0000C4E90013CAE7246821445418A34211609D
:102F1000C5D1D3E900432144C2E90013BFE770479C
:102F20000C230360BBE700BF04070024F8B5CD1CE9
:102F300025F0030508350C2D38BF0C25002D06465D
:102F400023DBA94221D8254F00F03AFF3A6822B38B
:102F5000144603E063682246FBB11C4623685B1BF2
:102F6000F8D40B2B15D8636894420CBF3B605360B8
:102F7000304600F027FF04F10B00231D20F007006E
:102F8000C21A01D01B1AA350F8BD0C2333600020D5
:102F9000F8BD23601C442560EAE77968C9B1294679
:102FA000304600F0B1F9431C0CD0C41C24F00304DB
:102FB000A04205D0211A304600F0A6F9013001D018
:102FC0002560D5E70C233046336000F0FBFE00207F
:102FD000F8BD304600F098F97860E0E70407002477
:102FE0009368013B002B936011DA10B49469A342FB
:102FF00009DB0A2907D01368581C106019700846AD
:103000005DF8044B70475DF8044B00F0D7B91368C6
:10301000581C106019700846704700BF9BB1F8B586
:10302000134406460F46541E5D1E01E0AC4208D014
:1030300014F8011F3A463046FFF7D2FF431CF5D182
:10304000F8BD0020F8BD0020704700BF936810B5A0
:10305000144613B95360184610BD00F0F9FB002365
:10306000C4E9013310BD00BF2DE9F04F88469FB081
:1030700015461C46814618B18369002B00F0A280DA
:10308000924B984500F0A480914B984500F0B18098
:10309000904B984508BFD9F80C80B8F80C30180749
:1030A00040F19D80D8F81030002B00F0988000236C
:1030B0000B932978884E059420238DF831303023E6
:1030C0008DF832300127002974D02C460B4604E0DD
:1030D00014F8013F002B00F08F80252BF8D1B4EBC2
:1030E000050B40F08C802378002B63D000234FF039
:1030F000FF32CDE90723069309938DF85B301C93CB
:10310000013404E0069A07FA03F3134306932546B5
:10311000052214F8011B3046FFF7DAF8831B00285C
:10312000F0D1069BD90644BF20228DF85B20297878
:103130001A0744BF2B228DF85B202A2970D1059AEB
:103140001168043200290592C0F29B8009916978C8
:1031500001352E2976D0614C03222046FFF7B8F8BE
:1031600038B1069B001B402404FA00F00343069389
:10317000013515F8011B5A488DF830100622FFF76B
:10318000A7F8002800F08380564B002B6DD005AACD
:103190000092554B424606A94846FDF7B9FA0390FE
:1031A000039B013306D00B9B039A297813440B939E
:1031B00000298AD1B8F80C305B0617D40B981FB0E1
:1031C000BDE8F08FFFF700F8404B98457FF45CAF07
:1031D000D9F80480B8F80C3018073FF563AF4146C2
:1031E000484600F065F900283FF461AF4FF0FF302A
:1031F000E5E7D9F8088050E7B4EB050BDAD0AA462A
:10320000C5F1010503E0934536D91AF8011F42467E
:103210004846FFF7E5FE013005EB0A02F3D1C9E7A6
:10322000A1F13002092A94D8099B15F8011F03EB7C
:10323000830302EB4303A1F13002092AF5D92E29B9
:10324000099388D169782A292BD1059BA9781A6816
:1032500007920433002A05F102000593B8BF4FF02E
:10326000FF330546B8BF079375E7059B073323F087
:1032700007030833059396E70B9A23785A440B9279
:1032800032E7494243F00203099106935FE705AA3A
:103290000092154B424606A94846FDF751FD0390A2
:1032A0007EE7A1F130020023092A079305F1010509
:1032B0003FF651AF15F8011F03EB830302EB430305
:1032C000A1F13002092AF5D9079344E7603E0108CD
:1032D000403E0108203E01084C43010854430108C8
:1032E00058430108110700081D30000810B4054CB0
:1032F0008446134620685DF8044B0A466146FFF792
:10330000B3BE00BF0400002438B5074D00220446B8
:1033100008462A6001F0E4F8431C00D038BD2B6851
:10332000002BFBD0236038BD0C07002410B50C46E1
:10333000B1F90E1000F070FD002803DB636D03444B
:10334000636510BDA38923F48053A38110BD00BF22
:10335000002070472DE9F0410C46B1F90C101F46D2
:10336000CB05054616460BD421F48051A1813B467E
:10337000B4F90E1032462846BDE8F04100F082B89C
:10338000B4F90E100223002200F0DAFBB4F90C109D
:10339000EAE700BF10B50C46B1F90E1000F0D0FB03
:1033A000A389421C0EBF23F4805343F4805360650D
:1033B000A38110BDB1F90E1000F022B9F8B50D4689
:1033C0001446064608B1836943B3254B9C422AD074
:1033D000244B9C4229D0244B9C4208BFF468A3890B
:1033E000A269A2601A0722D5236903B32268616922
:1033F000D31AEDB299422F4629DD0133A168013974
:10340000A160511C2160157062699A4216D0A3898F
:10341000DB0701D50A2D11D03846F8BDFEF7D4FEE2
:103420000F4B9C42D4D17468D9E7B468D7E72146E2
:10343000304600F03DF838B92369D7E721463046D9
:1034400000F07AF90028E7D04FF0FF37E4E7214693
:10345000304600F071F90028F6D122680123CDE74B
:10346000603E0108403E0108203E010810B4044CB3
:1034700003460A4620685DF8044B1946FFF79EBFD5
:103480000400002438B50C46084D844611462046F9
:103490001A4600232B60644601F030F8431C00D02C
:1034A00038BD2B68002BFBD0236038BD0C070024EF
:1034B0003C4B70B51D6806460C460DB1AB69E3B1D7
:1034C000394B9C421FD0394B9C424DD0384B9C42CB
:1034D00008BFEC68B4F90C3018079AB219D5216905
:1034E00011B312F001002FD00020A06060694042AB
:1034F000A06100292ED0002070BD2846FEF764FE92
:10350000294B9C42DFD16C68B4F90C3018079AB291
:10351000E5D4D1063ED5520728D4216943F00803EB
:10352000A3819AB20029DCD102F42070B0F5007FAB
:10353000D7D02146304600F019FBB4F90C30216990
:103540009AB212F00100CFD1950758BF6069A06010
:103550000029D0D1120658BF0846CDD543F040030C
:10356000A3814FF0FF3070BDAC68B3E7616B51B120
:1035700004F14402914204D03046FFF775FCB4F9DF
:103580000C300022626321690022C4E9001223F09A
:103590002403C3E7092243F0400332604FF0FF30B9
:1035A000A38170BD04000024603E0108403E010874
:1035B000203E010800B50B4C25681446EE681A46FB
:1035C00085B003460D464CB107490095CDE901147D
:1035D0003046064900F028F900F04CFC04490C463E
:1035E000F3E700BF040000246043010870430108B2
:1035F0006C43010808B513460022FFF7DBFF00BF4C
:1036000038B5074D0022044608462A6000F030FF16
:10361000431C00D038BD2B68002BFBD0236038BD85
:103620000C0700248B891A072DE9F0410C468046CF
:103630003FD44A68002A58DDE66A002E52D00022A4
:10364000D8F80050C8F8002013F4805251D101235B
:10365000216A4046B047431C5ED0A389E66A5F07F3
:1036600005D56368C01A636B0BB1236CC01A216A5D
:10367000024600234046B047411C3CD1D8F80030F8
:10368000002B38D01D2B01D0162B4DD123690022E1
:10369000C4E90032616BC8F8005019B304F1440367
:1036A000994202D04046FFF7DFFB00206063BDE88F
:1036B000F0810E69B6B10D680E609A070CBF4B69B8
:1036C0000023AD1B8B600BE02B463246216AA76AB4
:1036D0004046B847B0F1000CA5EB0C05664413DD7D
:1036E000002DF1DC0020BDE8F0810A6C002AA3DC8B
:1036F000F8E7606DB3E70023636023692360A38963
:10370000DB04C7D56065C5E7A38943F040034FF0EC
:10371000FF30A381BDE8F081D8F80030002B9CD0A9
:103720001D2B06D0162B04D0A38943F04003A381A0
:10373000D9E7C8F80050D5E738B50B69BBB10D46DD
:10374000044608B18369B3B10D4B9D4211D00D4BB6
:103750009D4213D00C4B9D4208BFE568B5F90C3073
:103760002BB129462046BDE83840FFF75BBF00205B
:1037700038BD6568F2E7FEF727FDE5E7A568EDE7E8
:10378000603E0108403E0108203E010838B540B3C4
:1037900003690446E3B1174B1D680DB1AB69CBB1AA
:1037A000154B9C420FD0154B9C4221D0144B9C4290
:1037B00008BFEC68B4F90C3053B121462846BDE887
:1037C0003840FFF72FBF6C68B4F90C30002BF4D1F0
:1037D000002038BD2846FEF7F7FC074B9C42E2D19B
:1037E000F1E7084B08491868BDE83840FEF72CBDE2
:1037F000AC68DFE704000024603E0108403E010899
:10380000203E0108183E0108393700080CB400B505
:1038100083B004AB53F8042B0193FFF725FC03B0EE
:103820005DF804EB02B070470EB410B583B005AB81
:10383000064C53F8042B019301462068FFF714FC53
:1038400003B0BDE8104003B0704700BF040000247F
:103850009368002B00F085802DE9F04FB1F90C3012
:103860000C461907804683B0174698B225D52369C0
:103870001BB310F002033D682DD04FF0000ADFF8B3
:10388000BCB25646B9465E453346524628BF5B46F3
:103890004046002E52D0216AA76AB847002856DD5C
:1038A000D9F808301B1A8244361AC9F80830002BA0
:1038B000E9D1002003B0BDE8F08F21464046FFF774
:1038C000F7FD002840F03681B4F90C303D6898B21D
:1038D00010F00203D1D110F0010944D14E460097F7
:1038E00046B38205D4F808B040F18380B3455A4608
:1038F00000F2B28010F4906F40F0BF802068019217
:10390000494600F0E1F9A368019AA3EB0B01236893
:10391000A1601344B24623600026009B9868A0EB88
:103920000A00D14498600028C3D0B4F90C0080B2DA
:10393000002ED6D1D5E900960835D1E7D5E900A605
:103940000835A0E721464046FFF7F6FE80B3B4F9FC
:103950000C3043F040034FF0FF30A38103B0BDE8CB
:10396000F08F002070471E46AA46994618461D460D
:10397000009756B388B34A46D4E904132068B2428C
:1039800028BF3246884205D9A16803EB010B5A458E
:1039900000F3A680934263DC216AA76A2A46404668
:1039A000B847B0F1000BD2DDB9EB0B09CAD001204A
:1039B000009A9368A3EB0B035D44A6EB0B069360A0
:1039C000002B3FF476AF002ED4D10AF1080353E95F
:1039D00002569A460833002EF9D032460A2128466C
:1039E000FEF776FC002800F09C800130A0EB050972
:1039F000C1E720682369984216D86369B34213D897
:103A00006FF00042B24228BF3246216A92FBF3F2C5
:103A1000A76A02FB03F340464A46B847B0F1000AE2
:103A200095DDA6EB0A0678E7B345DA4628BFB2462D
:103A30005246494600F048F9A3682268A3EB0A03FE
:103A40005244A3602260002BEBD121464046FFF791
:103A500073FE0028E5D07AE72068B34632464EE789
:103A60002946019200F030F9019AA3689B1AA360DD
:103A7000236813442360934696E723682169A3EBE8
:103A8000010B636903EB430A0AEBDA7A0BF10103DA
:103A90004FEA6A0A33445345524684BF9A46524617
:103AA00043052CD511464046FFF740FA00283BD08D
:103AB0005A4621690190FCF779FCA289019B22F406
:103AC000906242F08002A28103EB0B002361AAEB1B
:103AD0000B03C4F814A0A3602060B34632460EE77F
:103AE00029465A4600F0F0F823685B4423602146DB
:103AF0004046FFF721FE00283FF456AF27E7404637
:103B000000F062F903460028DED121694046FFF744
:103B1000ABF9B4F90C300C2223F08003C8F8002074
:103B200017E7721C914627E70C22B4F90C30C8F84D
:103B300000200EE74FF0FF30BCE600BF00FCFF7F27
:103B400038B50C46084D8446114620461A460023D7
:103B50002B60644600F0B4FC431C00D038BD2B68D9
:103B6000002BFBD0236038BD0C070024F0B58B89F7
:103B70000C46990797B007D504F147030122C4E921
:103B80000432236017B0F0BDB4F90E1000290546C9
:103B90002DDB6A4600F076F9002827DB019E06F44B
:103BA00070464FF48067A6F50056B6FA86F6394699
:103BB00028467609FFF7BAF930B3A3891A4AAA62F0
:103BC00043F08003C4E90407A3812060002ED9D00C
:103BD000B4F90E10284600F06BF90028D2D0A38962
:103BE00023F0030343F00103A381CBE7A38913F080
:103BF000800F14BF40274FF48067394628460026BF
:103C0000FFF794F90028D8D1B4F90C309A05B9D44B
:103C100023F0030304F1470243F002030121C4E946
:103C20000421A3812260ADE7D51F000870B50C46C2
:103C3000B1F90E10002996B016461D4613DB6A46F0
:103C400000F020F900280EDB019901F47041A1F584
:103C50000051B1FA81F14FF48063490900202960D5
:103C6000336016B070BDB4F90C3000221B062A6018
:103C700004D540230020336016B070BD4FF480633C
:103C80000020336016B070BD10B4034CD4F8E4408B
:103C9000A4465DF8044B60476800002482B049B137
:103CA0005AB16BB113780B601278101E18BF012047
:103CB00002B0704701A9002AF3D1104602B0704744
:103CC0006FF00100F4E700BF88420DD98B188342E2
:103CD0000AD900EB020CBAB1624613F801CD02F822
:103CE00001CD9942F9D170470F2A0ED8034602F14F
:103CF000FF3C4AB10CF1010C013B8C4411F8012B43
:103D000003F8012F6145F9D1704740EA01039B0791
:103D100050D1A2F1100370B501F1200C23F00F0572
:103D200001F1100E00F11004AC441B095EF8105CA8
:103D300044F8105C5EF80C5C44F80C5C5EF8085CBF
:103D400044F8085C5EF8045C44F8045C0EF1100E64
:103D5000E64504F11004E9D1013312F00C0F01EB38
:103D6000031102F00F0400EB031327D0043C24F0EE
:103D700003064FEA940C1E441C1F8E465EF8045B3B
:103D800044F8045FB442F9D10CF1010402F00302DB
:103D900003EB840301EB840102F1FF3C4AB10CF117
:103DA000010C013B8C4411F8012B03F8012F6145F4
:103DB000F9D170BD02F1FF3C03469BE72246EBE7D9
:103DC000704700BF704700BFF8B51446F9B1CAB1DB
:103DD00006460D4600F07EF8A04202D32F46384634
:103DE000F8BD21463046FFF7A1F807460028F6D077
:103DF00022462946FCF7DAFA30462946FFF734F81E
:103E00003846F8BD2746FFF72FF83846F8BDBDE81D
:103E1000F8401146FFF78AB838B50C46084D84467D
:103E2000114620461A4600232B60644600F050FBE2
:103E3000431C00D038BD2B68002BFBD0236038BD5D
:103E40000C07002410B4034CD4F8E040A4465DF8FD
:103E5000044B60476800002449B1FF2A02D80A7069
:103E6000012070478A2303604FF0FF3070470846F7
:103E7000704700BF08B5062000F0CAF8012000F026
:103E800045FB00BF70B50C46084D03460026204692
:103E900011461C462E6000F0F3FA431C00D070BDA2
:103EA0002B68002BFBD0236070BD00BF0C070024E3
:103EB00038B5074D0022044608462A6000F0F0FAA3
:103EC000431C00D038BD2B68002BFBD0236038BDCD
:103ED0000C07002451F8040C0028A0F10400BCBF1A
:103EE0000B58C018704700BF38B5446C0CB10020A7
:103EF00038BD80210546FFF719F80246686430B1E5
:103F0000031F7C3243F8044F9342FBD1EFE74FF09D
:103F1000FF3038BD1F29F8B5054608D8466C0C4659
:103F200017464EB156F8240046F82470F8BD162303
:103F300003604FF0FF30F8BD8021FEF7F7FF064623
:103F4000686440B1031F00F17C05002143F8041FA1
:103F50009D42FBD1E6E74FF0FF30F8BD1F2938B591
:103F6000054620D8426C0C466AB152F8213053B154
:103F7000012B16D0591C10D00025204642F82450A1
:103F80009847284638BD284600F0F8F822460146F2
:103F90002846BDE8384000F0DBB816230360012056
:103FA00038BD002038BD162303604FF0FF3038BD08
:103FB0001F292AD8426C38B50C46054682B152F802
:103FC000243002EB84024BB1591C19D0012B15D0BF
:103FD0000025204615609847284638BD012038BD89
:103FE0008021FEF7A3FF0246686458B1031F002139
:103FF0007C3043F8041F9842FBD1E0E7032038BD32
:10400000022038BD4FF0FF3038BD4FF0FF30704711
:1040100038B5144B1F281D681FD86A6C044662B15E
:1040200052F820304BB1012B15D0591C0FD0002570
:1040300042F820509847284638BD284600F09EF8A0
:10404000224601462846BDE8384000F081B81623D4
:104050002B60012038BD002038BD16232B604FF0A7
:10406000FF3038BD04000024124B1F2870B51E68B5
:1040700008D80D46716C044649B151F8240041F846
:10408000245070BD162333604FF0FF3070BD802187
:104090003046FEF74BFF0146706440B1031F00F14C
:1040A0007C0C002243F8042F6345FBD1E5E74FF079
:1040B000FF3070BD0400002438B50B4B1D686C6CDC
:1040C0000CB1002038BD80212846FEF72FFF686420
:1040D00038B1031F00F17C0243F8044F9342FBD137
:1040E000EFE74FF0FF3038BD0400002438B5174B20
:1040F0001F281D6826D86A6C044682B152F8243005
:1041000002EB84024BB1591C1AD0012B16D00025AA
:10411000204615609847284638BD012038BD8021CB
:104120002846FEF703FF0246686458B1031F0021CA
:104130007C3043F8041F8342FBD1DFE7032038BD06
:10414000022038BD4FF0FF3038BD00BF040000240E
:1041500070B50C46084D03460026204611461C4605
:104160002E6000F0A5F9431C00D070BD2B68002B19
:10417000FBD0236070BD00BF0C07002400F088B99D
:1041800053B94AB9002908BF00281CBF4FF0FF31BE
:104190004FF0FF3000F06AB9ADF1080C6DE904CEC4
:1041A00000F006F8DDF804E0DDE9022304B0704712
:1041B0002DE9F047089D0C46002B4ED194468C45C6
:1041C0008646B2FA82F262D94AB1C2F12003914026
:1041D00020FA03F30CFA02FC194300FA02FE4FEA3C
:1041E0001C471FFA8CF6B1FBF7F44FEA1E4307FB9E
:1041F000141143EA014304FB06F199420AD91CEB6E
:10420000030304F1FF3080F01381994240F21081E2
:10421000023C6344591A1FFA8EF3B1FBF7F007FB17
:10422000101143EA014300FB06F69E420AD91CEB3B
:10423000030300F1FF3180F0FD809E4240F2FA80DE
:10424000634402389B1B40EA044000211DB1D34067
:104250000022C5E90032BDE8F0878B4205D90DB1D7
:10426000C5E9000100210846F5E7B3FA83F100290A
:1042700046D1A34202D39042C0F0F180861A64EB8B
:1042800003030120002DE6D0C5E90063E3E7002A1F
:1042900040F09180A1EB0C044FEA1C481FFA8CF708
:1042A0000121B4FBF8F64FEA1E4308FB164443EA2B
:1042B000044307FB06F0984208D91CEB030306F100
:1042C000FF3402D2984200F2CE8026461C1A1FFA12
:1042D0008EF3B4FBF8F008FB104443EA044300FB00
:1042E00007F79F4208D91CEB030300F1FF3402D209
:1042F0009F4200F2B1802046DB1B40EA0640A5E762
:10430000C1F120068B4022FA06F71F4320FA06FC73
:1043100004FA01F343EA0C03F44000FA01F8380C04
:104320004FEA1349B4FBF0FE1FFA87FC00FB1E4462
:1043300049EA04440EFB0CF9A14502FA01F20AD93C
:104340003C190EF1FF3A80F08580A14540F2828051
:10435000AEF1020E3C44A4EB09041FFA83F9B4FB4E
:10436000F0F300FB134449EA044403FB0CFCA445AE
:1043700007D93C1903F1FF3068D2A44566D9023B46
:104380003C4443EA0E40A0FB0293A4EB0C049C4285
:10439000CE469C4652D34FD055B1B8EB0E0364EBDA
:1043A0000C0404FA06F6CB40CC401E43C5E9006479
:1043B0000021BDE8F087C2F1200320FA03F10CFAD6
:1043C00002FC24FA03F394400C434FEA1C4800FA21
:1043D00002FE1FFA8CF7B3FBF8F008FB1031230C38
:1043E00043EA014300FB07F1994208D91CEB0303A0
:1043F00000F1FF362CD299422AD9023863445B1A65
:10440000A4B2B3FBF8F108FB113344EA034401FB07
:1044100007F3A34208D91CEB040401F1FF3613D2C1
:10442000A34211D902396444E41A41EA004138E751
:104430000446EFE6084605E7C845ADD2B9EB020EE3
:1044400063EB070C0138A7E73146EDE7034698E731
:104450003046D4E7D6467EE7634402384CE706464A
:10446000234608460EE7023E63442FE7704700BF2D
:10447000024B58221A604FF0FF3070470C0700249F
:10448000024B58221A604FF0FF3070470C0700248F
:10449000024B58221A604FF0FF3070470C0700247F
:1044A000024B58221A600020704700BF0C070024FE
:1044B000024B58221A604FF0FF3070470C0700245F
:1044C000024B58221A604FF0FF3070470C0700244F
:1044D000024B58221A604FF0FF3070470C0700243F
:1044E000044A05491368002B08BF0B4618441060A6
:1044F000184670471007002408620124024B582216
:104500001A604FF0FF3070470C070024FEE700BF31
:10451000FEE700BF0B480C4A904203D0121A0B4929
:10452000FBF744FF0A480B4A904203D0121A0021BD
:10453000FBF7D6FF03F04EFBFBF714FF00F036F855
:10454000FEE700BF000000244C050024F8430108EA
:104550005005002408620124704700BF704700BF67
:10456000FAB1013AF8B504460D4600265708D4EDD5
:10457000007A083414ED017A9FED0A0A77EE877A03
:10458000094827EE800A0FF025FB2A46B74285ED41
:10459000010A06F1010605F1080582ED000AE6D1DF
:1045A000F8BD70479A99193F1407002410B50024EC
:1045B00040482DED028B98B000F0AAF821463D4806
:1045C00000F086F904213B4800F0ACF8394800F0CF
:1045D000A5F84FF60B723849234605A800940968E0
:1045E000B0EE408AADF81420ADF8282001220894DE
:1045F0000D94CDE90644CDE90B4401F0A1FD2F490E
:10460000234622460094022409680AA801F098FD76
:10461000ADF80C40224603990FA801F091FA4FF42F
:10462000407322460DF14E00ADF81030049901F0B0
:1046300087FA0FA904232246214801F095FA204861
:1046400001F078FCB0EE480A1E480FF04DFA9FEDDD
:104650001E0A1C480FF08CFB1A48B7EE000A0FF038
:1046600055FB1A49134800F055F80021144801F091
:1046700075FCF0EE408A0121114801F06FFC0AA898
:10468000B0EE408A01F04AFEB0EE680A0D480FF025
:104690003DFB9FED0F0A0B4828EE000A0FF068FB68
:1046A00005A8012101F046FE4FF4FA7003F0B2F8BC
:1046B000DBE700BF9C340124B0400108AC40010896
:1046C000B4340124140700240000FA4361450008B3
:1046D00000007A4410B5094C0023094822460949D4
:1046E000036043610362C3630FF076FB2246064911
:1046F0000648BDE810400FF06FBB00BF000000246B
:104700009C3401245D450008594500081407002425
:10471000704700BF143001F0EDB900BF143001F054
:10472000E5B900BF38B500F1140504462DED028B44
:10473000284601F0CDF9284601F0D8F92846B0EE18
:10474000408A01F0C1F9D0ED007AF8EE677A88EE80
:10475000277ABDEC028B84ED0E7A38BD10B540F29D
:1047600003338EB000244FF60B7240F20341ADF8D4
:10477000083009A80123ADF81020ADF82420224606
:10478000ADF80C100094029907940C94CDE90544FF
:10479000CDE90A4401F0D4FC04A801232246039980
:1047A000009401F0CDFC09A801F0B8FD10B901207A
:1047B0000EB010BD04A801F0B1FD80F00100C0B240
:1047C00040000EB010BD00BF2DE9F04103239AB0A8
:1047D00001270024149306463A4B1094119340F29B
:1047E00004531797ADF84830CDE91574FFF7B6FFBD
:1047F000B842054625D0022845D040F60132324B5A
:104800000DF12C081894ADF82C200B981997CDF8C1
:104810004A3000F0D3F810A906F13C0002F0D8FDB0
:10482000302003224FF07E5341460D930E93CDE985
:104830000B02F26B06F1140001F00EF91AB0BDE89C
:10484000F0811023204A06A906908DF828300DF13A
:104850002C081E4BCDF84A2009940294CDE907306C
:10486000CDE9180402A801F0C7FF0823029A03A9A2
:104870004046ADF80C508DF80E40049505930B940E
:1048800000F0DAF8C7E7104B40F601320DF12C08C2
:104890000094CDF84A304FF60B73ADF8182040461F
:1048A00006993A46ADF82C3023460E94CDE91847C8
:1048B000CDE90C4401F044FC2146404601F03AFDAC
:1048C000A9E700BF04020404040604030704010B63
:1048D000F0B5384B0446384D40F2011201272DED5A
:1048E000028B456083B0A36003F58133ADF80420EB
:1048F00040F2027203F580730020A4F82520E360E3
:1049000040F606632782A4F8293084F8277084F8DB
:104910002B7000918DF8060003F012F9054602F0A5
:104920007BFF064610BB0DB3694604F130008DF8DD
:10493000067003F08DF8072D2ED104F114052046E2
:10494000FFF742FF284601F0D1F82846B0EE408A32
:1049500001F0BAF8D0ED007AF8EE677A88EE277A9F
:1049600084ED0E7A03B0BDEC028BF0BD694604F114
:10497000300003F06DF8072D13D1002EDDD004F1C7
:10498000250001F0E1FC04F1290001F0DDFC04F157
:10499000120000F075F9D0E7211D204602F050F911
:1049A000CBE7211D204602F04BF9002EE7D1002D68
:1049B000E5D0C2E7050705060508050910B584B06E
:1049C0000346012403A8ADF80C30ADF80E4001F009
:1049D000BBFC214603A801F095FD204602F01AFF1A
:1049E000002103A801F08EFD204602F013FF2146AE
:1049F00003A801F087FD04B010BD00BF10B5C2F3DD
:104A0000002384B00C46017C8DF80D2043EA44025B
:104A1000FA2402238DF80C2003AA009401F080FFF1
:104A200018B10124204604B010BD04460A2002F04B
:104A3000F1FE204604B010BD034670B543F8042BC8
:104A4000044684B0FA2507C983E80700A1791E232C
:104A5000009503AA1A31ADF80C3020460223C9B2E2
:104A6000217401F05DFF10B1012004B070BD0A2077
:104A700002F0D0FE4FF4B85200950223ADF80C209E
:104A8000204603AA217C01F04BFF0028ECD10A202C
:104A900002F0C0FE41F2027200950223ADF80C2034
:104AA000204603AA217C01F03BFF0028DCD10A202C
:104AB00002F0B0FE042200950223ADF80C2020463F
:104AC00003AA217C01F02CFF0028CDD10A2002F09E
:104AD000A1FE062200950223ADF80C20204603AA71
:104AE000217C01F01DFF0028BED10A2002F092FEB9
:104AF00041F2082200950223ADF80C20204603AABB
:104B0000217C01F00DFF0028AED10A20064602F0FC
:104B100081FE0095022303AA217C2046ADF80C609B
:104B200001F0FEFE00289FD1304602F073FE009592
:104B300022790C232046002A8DF80C3003AA4FF06E
:104B4000020314BF622142218DF80D10217C01F077
:104B5000E7FE002888D1304602F05CFE2279D4E9D5
:104B6000023182F001020B4343EA82136279DBB225
:104B70000AB143F020030E22FA258DF80D302046AD
:104B8000009502238DF80C2003AA217C01F0C8FEB9
:104B900000287FF469AF0A2002F03CFE1022009545
:104BA0000223ADF80C20204603AA217C01F0B8FEB8
:104BB00000287FF459AF0A2002F02CFE1221009544
:104BC0000223ADF80C1003AA217C204601F0A8FEB8
:104BD00000287FF449AF0A2002F01CFE01220921BF
:104BE0002046FFF70BFF003818BF01203DE700BF4C
:104BF000F0B5214D87B000240126102702A94FF4FB
:104C0000805228460194CDE90267CDE9046409F099
:104C1000E7FD642003F02AFA022302A94FF4805230
:104C2000284602930594CDE9037609F0D9FD0423C3
:104C300002A94FF4805228460397CDE90434032398
:104C4000029309F0CDFD40F23223042202A9284646
:104C5000019310230496CDE90223019B4FF4805267
:104C6000059309F0BDFD40F60601284609F0D8FD80
:104C7000204607B0F0BD00BFE4340124000000006E
:104C800070B51F4B88B008221E4E00214FF40064FF
:104C90001A614FF0020C03920A225E6020260692EF
:104CA0004022054699600320196210215C620124AC
:104CB000C3E905624FF4C072DC60DA6107229FED40
:104CC0000E7BCDE900C20422CDE904016946181D1E
:104CD000029283ED0A7B09F059FD38B92846FFF7A7
:104CE00087FF003818BF012008B070BD204608B00B
:104CF00070BD00BFAFF30080001000000000000096
:104D0000E0340124404100525E4A0023F0B51468AB
:104D10008FB00A93002C40F0B2805B4B0121032638
:104D20000C2511600227D3F8D420584842F4805251
:104D3000C3F8D420D3F8D42002F480520092009A11
:104D4000D3F8E02042F01002C3F8E020D3F8E020CE
:104D500002F010020192019AD3F8E02042F04002E2
:104D6000C3F8E020D3F8E02002F040020292029A59
:104D7000D3F8E02042F00802C3F8E020D3F8E020A6
:104D800002F008020392039AD3F8E02042F4807202
:104D9000C3F8E020D3F8E02002F480720492049A71
:104DA000D3F8E02042F08002C3F8E020D3F8E020FE
:104DB00002F080020592059AD3F8E02042F020022A
:104DC000C3F8E020D3F8E02002F020020692069A11
:104DD000D3F8E02042F00402C3F8E0204FF68372DB
:104DE000D3F8E0300B9603F004030C9507930223ED
:104DF000079908A9CDE9082304F0A2FF48F2371368
:104E000008A9234808930C950997CDE90A4604F0B0
:104E100097FF4CF2037308A91E480893CDE9097463
:104E2000CDE90B6504F08CFF40F2FF6308A91A4836
:104E30000893CDE90974CDE90B6504F081FF4FF6C5
:104E40000C7308A915480893CDE90974CDE90B65E1
:104E500004F076FF4FF63F0308A911480893CDE907
:104E60000974CDE90B6504F06BFF202308A90B48FA
:104E700009970C950893CDE90A4604F061FF0FB03D
:104E8000F0BD00BFDC340124004402580010025879
:104E900000180258000C025800200258001C02584A
:104EA000001402582DE9F04FDFF8F08389B0054671
:104EB000144608F1180000AF0E4602F08BFBD8F83C
:104EC0001820436962B3D8F81C20D8F804A0002A3F
:104ED0000BBF4FF008094FF010094FF0020B4FF0D5
:104EE000040BBAF1000F28D0A200E946012B02F111
:104EF000070222F00702ADEB020D6846ADEB020D92
:104F0000EB4600F03081022B69D0002B00F0C98005
:104F100022465946D047CD462437BD46BDE8F08FDE
:104F2000D8F81C20002AF7D0D8F804A04FF00809C0
:104F30004FF0020BBAF1000FD6D1FB61D8F8003068
:104F4000BB61002BE8D0CD4802F0B0FBBBF1020FF3
:104F5000FB693861C7F814D000F074816A4648468E
:104F6000C4F35D01A2EBC4029546E946A9EBC40C6B
:104F7000C7F81C90E54602EB810CEA466246ADEBB1
:104F8000000DC7F80CC00AEB810EEC46ADEB000D2E
:104F900002EB8100CCF8080000EB8100CCF80C009B
:104FA0000EEB8100CCE9009200EB8101E946C9E9F2
:104FB00000AEC9E90201012B00F05483022B00F07E
:104FC0005C82002B00F07281620849466046BB6932
:104FD0009847D7F814D02437BD46BDE8F08F002C91
:104FE00096D0D8ED0C6A01469FEDA57A00222B1DC4
:104FF000844655F82200083107EE900A53F8220043
:105000000232F8EEE77A944267EE877A67EEA67A84
:1050100041ED027A07EE900AF8EEE77A67EE877ABA
:1050200067EEA67A41ED017AE3D8604659462246FA
:10503000944DD047D8ED0D6A0021331D9FED997A2C
:105040009FED996A904821E0F4EEC67AF1EE10FAED
:10505000C0F2CA840246DBED017A46F8212066EEF2
:10506000A77AF4EEC77AF1EE10FA40F2E980F4EE96
:10507000C67AF1EE10FAC0F2DD84024643F8212030
:1050800002310BF1080B8C427FF645AFDBED007A65
:1050900066EEA77AF4EEC77AF1EE10FAD4D82A4673
:1050A000D9E7002C3FF434AF1A46D8ED0C6A9FEDD7
:1050B0007C7A01462B1D35F922C0083107EE90CAD3
:1050C00033F922C00232F8EEE77A944267EE877A2B
:1050D00067EEA67A41ED027A07EE90CAF8EEE77A1B
:1050E00067EE877A67EEA67A41ED017AE3D85946F2
:1050F0002246D047D8ED0D6A0021331D9FED697A15
:105100009FED696A614823E0F4EEC67AF1EE10FA89
:10511000C0F2858447F6FE72DBED017A46F8212065
:1051200066EEA77AF4EEC77AF1EE10FA40F28680C6
:10513000F4EEC67AF1EE10FAC0F2668447F6FE721B
:1051400043F8212002310BF1080B8C427FF6E3AECD
:10515000DBED007A66EEA77AF4EEC77AF1EE10FA8C
:10516000D2D80246D8E7002C3FF4D2AED8ED0C6A74
:1051700084469FED477A00212B1D55F821200CF124
:10518000080C82F40002A2F5000207EE902A53F800
:1051900021200231F8EEE77A82F400028C42A2F577
:1051A000000267EE877A67EEA67A4CED027A07EE88
:1051B000902AF8EEE77A67EE877A67EEA67A4CEDEA
:1051C000017ADAD859462246D047324DD8ED0D6AD9
:1051D0000021331D9FED337A9FED336A2E4820E086
:1051E000F4EEC67AF1EE10FAC0F206840246DBED68
:1051F000017A46F8212066EEA77AF4EEC77AF1EE3E
:1052000010FA19D9F4EEC67AF1EE10FAC0F2E5837D
:10521000024643F8212002310BF1080B8C427FF645
:105220007AAEDBED007A66EEA77AF4EEC77AF1EE9D
:1052300010FAD5D82A46DAE72A46EAE702467FE797
:105240002A461BE7A0006108073020F00700ADEBFD
:10525000000D6A46ADEB000DEA46ADEB090D02EB21
:105260008100FA61EC46ADEB090D0AEB8101F860B3
:10527000E946CCE90020C9E900A19CE634350124C7
:1052800000000030007E00800082FF7F0280FFFF70
:10529000000000347E0080FF82FF7F00183501246B
:1052A0000000003804FF7FBF04FF7F3F002C00F0A8
:1052B000C782BBF1020FD8F8241000F0FB823A69D4
:1052C000DCF80C0001EB820EDCF808109200C7F845
:1052D00000905FED0D5A0EF1040AD7F81C903A6168
:1052E0001A46FE612B1D0E46C7E901CB8446D7F84E
:1052F0000CB035F92210D8ED0C7A06EE101A33F9FD
:10530000221006EE901A3EF92210B8EEC66A07EE99
:10531000101AF8EEE66A3AF92210B8EEC77A26EECD
:10532000256A66EEA56A27EE257A26EE276A66EEDE
:10533000A76A27EE277A07EE901A51080232F8EE94
:10534000E77A09EB8100944280ED006A0BEB810063
:1053500067EEA57AC0ED006A06EB81000CEB8101D7
:1053600080ED007A98ED0C7A67EE877AC1ED007ACD
:10537000BFD8D7F800906208BB694946FE69D7E9F3
:1053800001CB60469847D8F82C303A69D8ED0D6AC1
:105390001A441FED3C7A1FED3C6A331D904602F122
:1053A000040AA94D0022D9E900EC51E0F4EEC67AD6
:1053B000F1EE10FAC0F2CD8247F6FE7046F82200F8
:1053C0000CEB0100D0ED007A66EEA77AF4EEC77A16
:1053D000F1EE10FA4BD9F4EEC67AF1EE10FAC0F203
:1053E000C28247F6FE70BBF1020F43F822002BD0B9
:1053F000D9F808000844D0ED007A66EEA77AF4EEFA
:10540000C77AF1EE10FA36D9F4EEC67AF1EE10FA58
:10541000C0F2D98247F6FE7048F82200D9F80C0095
:105420000844D0ED007A66EEA77AF4EEC77AF1EE82
:1054300010FA1ED9F4EEC67AF1EE10FAC0F2B98273
:1054400047F6FE714AF82210023294427FF6C1AD4F
:1054500051080EEB81008900D0ED007A66EEA77A44
:10546000F4EEC77AF1EE10FAA0D82846A6E728464F
:10547000B9E72946E6E72846CEE7002C00F0E081B0
:10548000BBF1020FD8F8243000F0E1813A69DCF872
:10549000081003EB820EDCF80C009300C7F80090B4
:1054A000DFED6A5A0EF1040AD7F81C9000223B6126
:1054B0002B1DFE610E46C7E901CB8446D7F80CB020
:1054C00055F82210D8ED0C7A07EE101A53F8221076
:1054D000B8EEC76A07EE101A5EF82210F8EEC76A37
:1054E00007EE101A26EE256A5AF82210B8EEC77A8F
:1054F00066EEA56A26EE276A27EE257A66EEA76A8B
:1055000027EE277A07EE901A51080232F8EEE77A72
:1055100009EB8100944280ED006A0BEB810067EE9D
:10552000A57AC0ED006A06EB81000CEB810180EDED
:10553000007A98ED0C7A67EE877AC1ED007ABFD8D1
:10554000D7F800906208BB694946FE69D7E901CBEC
:1055500060469847D8F82C303A69D8ED0D6A1A445D
:105560009FED3E7A9FED3E6A131D9246DFF8E4C040
:105570000022FB61331D364DD9E9008E4EE0F4EE7A
:10558000C67AF1EE10FAC0F20682284646F82200EA
:105590000EEB0100D0ED007A66EEA77AF4EEC77A42
:1055A000F1EE10FA49D9F4EEC67AF1EE10FAC0F233
:1055B000F9812846BBF1020F43F822002AD0D9F81E
:1055C00008000844D0ED007A66EEA77AF4EEC77AB8
:1055D000F1EE10FA35D9F4EEC67AF1EE10FAC0F217
:1055E000D38128464AF82200D9F80C000844D0EDAF
:1055F000007A66EEA77AF4EEC77AF1EE10FA1ED9B9
:10560000F4EEC67AF1EE10FAC0F2B7812946F869D5
:1056100040F82210023294427FF6DBAC510808EBCE
:1056200081008900D0ED007A66EEA77AF4EEC77AA1
:10563000F1EE10FAA3D86046A8E76046BAE76146E3
:10564000E5E76046CEE700BF0280FFFF00000030C4
:105650000082FF7F007E00800000003404FF7FBFD7
:1056600004FF7F3F002C00F0EB803A690021D8F85E
:105670002430C7F8089003EB820ED7F81C909300F3
:10568000FE611FED0B6A0EF1040A3B612B1DFE68E3
:1056900055F821204808D8ED0C6ABBF1020F82F4BE
:1056A0000002A2F5000207EE902A53F8212082F4AE
:1056B0000002B8EEE77AA2F5000227EE067A07EEBE
:1056C000902A09EB8002F8EEE77A27EE267A67EE59
:1056D000867A82ED007A06EB80024FEA800067EE60
:1056E000A67AC2ED007A27D05EF8212082F400026B
:1056F000A2F5000207EE902A5AF8212082F4000257
:10570000B8EEE77AA2F5000227EE067A07EE902AB5
:10571000DCF80820F8EEE77A024427EE267A67EEF6
:10572000867A82ED007A98ED0C7ADCF80C2067EE30
:10573000877A0244C2ED007A02318C42A8D8D7F8A9
:10574000089060466208BB694946FE699847D8F8E8
:105750002C303A69D8ED0D6A1A441FED407A1FEDDE
:10576000406A131D9246DFF8ECC20022FB61331D34
:10577000B44DD9E9008E4EE0F4EEC67AF1EE10FA9F
:10578000C0F2CB80284646F822000EEB0100D0ED97
:10579000007A66EEA77AF4EEC77AF1EE10FA49D9EC
:1057A000F4EEC67AF1EE10FAC0F2C5802846BBF1DD
:1057B000020F43F822002AD0D9F808000844D0ED9F
:1057C000007A66EEA77AF4EEC77AF1EE10FA35D9D0
:1057D000F4EEC67AF1EE10FAC0F2B48028464AF828
:1057E0002200D9F80C000844D0ED007A66EEA77AC2
:1057F000F4EEC77AF1EE10FA1ED9F4EEC67AF1EEA5
:1058000010FAC0F291802946F86940F8221002325D
:1058100094427FF6DEAB510808EB81008900D0EDA1
:10582000007A66EEA77AF4EEC77AF1EE10FAA3D802
:105830006046A8E76046BAE76146E5E76046CEE71E
:10584000224649466046BB699847FFF7C2BB98EDC0
:105850000C6A0021DFED7C6A2B1DD7F81CE0D7F81D
:105860000CA055F8212007EE902A53F82120B8EE1D
:10587000E77A07EE902A4A080231F8EEE77A27EE37
:10588000267A0EEB82008C420AEB820267EEA67A41
:1058900027EE067A67EE867A80ED007AC2ED007A0E
:1058A000DFD83B696046620849469B003B61BB69A3
:1058B00098474FE6194698ED0C6ADFED646A2B1D98
:1058C000D7F81CE0D7F80CA035F9212007EE102AF4
:1058D00033F9212007EE902AB8EEC77A4A08023140
:1058E000F8EEE77A27EE267A0EEB82008C420AEB7E
:1058F000820267EEA67A27EE067A67EE867A80ED58
:10590000007AC2ED007ADFD83B69604662084946FA
:105910009B003B61BB69984735E5F0EE675AFEEEA8
:10592000E45A15EE900A2EE7F0EE675AFEEEE45ABE
:1059300015EE901A68E7F0EE675AFEEEE45A15EE9F
:10594000900A34E7F0EE675AFEEEE45A15EE900A3C
:1059500045E7DFED3F5A67EEA57AFDEEE77A17EEF1
:10596000900A00B22AE5DFED3A5A67EEA57AFDEE1D
:10597000E77A17EE900A00B235E5F0EE675AFEEED0
:10598000E05A15EE901A42E6F0EE675AFEEEE05A43
:1059900015EE900A26E6F0EE675AFEEEE05A15EE96
:1059A000900AF3E5F0EE675AFEEEE05A15EE900A23
:1059B00000E6DFED275A67EEA57AFDEEE77A17EEEF
:1059C000901A09B23EE5DFED225A67EEA57AFDEEA8
:1059D000E77A17EE900A00B21EE5F0EE675AFEEE87
:1059E000E45A15EE902A14E4F0EE675AFEEEE05AFF
:1059F00015EE902AFFF72FBBF0EE675AFEEEE45A41
:105A000015EE902AFFF7F3BBDFED115A67EEA57A8A
:105A1000FDEEE77A17EE902A12B2FFF791BBDFEDA9
:105A20000C5A67EEA57AFDEEE77A17EE902A12B2CD
:105A3000FFF772BBF0EE675AFEEEE05A15EE902AC1
:105A4000FFF71CBB82FF7F00000000300000003821
:105A500000FEFF467E0080FF30B5184C154685B02D
:105A6000046004F1080EEC460FC98EE80F00D4ED77
:105A7000047AF5EEC07A8CE80F00F1EE10FA1ADD28
:105A8000B7EE006A94ED057A27EE277AC6EE276A0C
:105A900084ED0D7AC4ED0C6A6DB1204640F8185FB4
:105AA00001F098FD064903690020064A2162A262BE
:105AB000E36005B030BD012005B030BD18350124CC
:105AC000002000300000003000680830704700BF40
:105AD000B1F5807F03680A4628BF4FF48072B1F5A4
:105AE000807F9A6094BF00200120704700681830C2
:105AF00001F0CABD30B5046883B008480D46A368FC
